S01400007265616374696F6E47616D652E7372656341
S11300000C9434000C9451000C9451000C94510045
S11300100C9462000C9451000C9451000C94510007
S11300200C9451000C9451000C9451000C94510008
S11300300C9451000C94C4000C9451000C94510085
S11300400C9451000C9451000C9451000C945100E8
S11300500C9451000C9451000C9451000C945100D8
S11300600C9451000C94510011241FBECFEFD8E022
S1130070DEBFCDBF11E0A0E0B1E0E8EDF6E002C0E4
S113008005900D92A430B107D9F721E0A4E0B1E0C6
S113009001C01D92A530B207E1F70E9465010C94DE
S11300A06A030C940000AB019C01A0E8BEE30E942B
S11300B05B039A0140E050E00E943903C901809536
S11300C0909508951F920F920FB60F921124CF921C
S11300D0DF92EF92FF922F933F934F935F936F932F
S11300E07F938F939F93AF93BF93EF93FF938091ED
S11300F00401833079F5E0EBF0E080818062808355
S113010080E88093B4006091010170910201072E90
S1130110000C880B990B0E9440022DEC3CEC4CEC3B
S11301205DE30E94CC026B017C016091010170913E
S11301300201072E000C880B990B0E944002A701B4
S113014096010E949B010E94080270930201609331
S1130150010105C0E0EBF0E080818F7C8083FF919A
S1130160EF91BF91AF919F918F917F916F915F912B
S11301704F913F912F91FF90EF90DF90CF900F9090
S11301800FBE0F901F9018951F920F920FB60F92EB
S113019011242F933F934F935F936F937F938F9388
S11301A09F93AF93BF93EF93FF93809100018235A8
S11301B0B1F52091040181E090E002C0880F991FFD
S11301C02A95E2F79BB1892B8BB98091040188238E
S11301D0A9F080910401863088F42091040130E074
S11301E02F5F3F4F81E090E002C0880F991F2A954E
S11301F0E2F7809590959BB189238BB98091040196
S1130200811107C08CE48093000181E08093040194
S11302103FC08091040181508093040139C08091D2
S113022000018C34A9F52091040181E090E002C022
S1130230880F991F2A95E2F79BB1892B8BB980917E
S113024004018823A9F080910401863088F4209168
S1130250040130E02150310981E090E002C0880FB0
S1130260991F2A95E2F7809590959BB189238BB9C4
S113027080910401863039F482E58093000185E0A1
S11302808093040105C0809104018F5F8093040171
S1130290809101019091020160E074E00E9453009A
S11302A09093850080938400FF91EF91BF91AF916B
S11302B09F918F917F916F915F914F913F912F917A
S11302C00F900FBE0F901F9018958AB18FEF8AB9C7
S11302D087B18E7F87B988B1816088B985B1816023
S11302E085B9E0EBF0E0808183608083E1EBF0E0AE
S11302F0808182608083E8E6F0E080818260808390
S1130300ECE6F0E080818160808378948091010143
S11303109091020160E074E00E9453009093850084
S1130320809384001092800085E08093810081E0B6
S113033080936F00FFCF5058BB27AA270E94B301B8
S11303400C9492020E94840238F00E948B0220F0E6
S113035039F49F3F19F426F40C9481020EF4E095CD
S1130360E7FB0C947B02E92F0E94A30258F3BA170F
S1130370620773078407950720F079F4A6F50C94B7
S1130380C5020EF4E0950B2EBA2FA02D0B01B90176
S113039090010C01CA01A0011124FF27591B99F0F7
S11303A0593F50F4503E68F11A16F040A22F232F03
S11303B0342F4427585FF3CF469537952795A79553
S11303C0F0405395C9F77EF41F16BA0B620B730BFA
S11303D0840BBAF09150A1F0FF0FBB1F661F771F6B
S11303E0881FC2F70EC0BA0F621F731F841F48F420
S11303F0879577956795B795F7959E3F08F0B0CFA9
S11304009395880F08F09927EE0F9795879508958F
S11304100E940F026894B1110C94C60208950E94C0
S1130420AB0288F09F5798F0B92F9927B751B0F0D5
S1130430E1F0660F771F881F991F1AF0BA95C9F764
S113044014C0B13091F00E94C502B1E008950C943B
S1130450C502672F782F8827B85F39F0B93FCCF3EE
S1130460869577956795B395D9F73EF490958095E1
S1130470709561957F4F8F4F9F4F0895E89409C001
S113048097FB3EF490958095709561957F4F8F4FC3
S11304909F4F9923A9F0F92F96E9BB279395F695D9
S11304A0879577956795B795F111F8CFFAF4BB0F57
S11304B011F460FF1BC06F5F7F4F8F4F9F4F16C0BB
S11304C0882311F096E911C0772321F09EE8872F45
S11304D0762F05C0662371F096E8862F70E060E001
S11304E02AF09A95660F771F881FDAF7880F96957A
S11304F0879597F9089597F99F6780E870E060E021
S113050008959FEF80EC089500240A9416161706A8
S113051018060906089500240A94121613061406F0
S113052005060895092E0394000C11F4882352F053
S1130530BB0F40F4BF2B11F460FF04C06F5F7F4F0B
S11305408F4F9F4F089557FD9058440F551F59F0F2
S11305505F3F71F04795880F97FB991F61F09F3FAC
S113056079F087950895121613061406551FF2CFD5
S11305704695F1DF08C0161617061806991FF1CF25
S113058086957105610508940895E894BB2766274C
S11305907727CB0197F908950E94DF020C94920209
S11305A00E94840238F00E948B0220F0952311F0FF
S11305B00C947B020C94810211240C94C6020E94B8
S11305C0A30270F3959FC1F3950F50E0551F629FEE
S11305D0F001729FBB27F00DB11D639FAA27F00D98
S11305E0B11DAA1F649F6627B00DA11D661F829FBF
S11305F02227B00DA11D621F739FB00DA11D621FA4
S1130600839FA00D611D221F749F3327A00D611DC0
S1130610231F849F600D211D822F762F6A2F1124A2
S11306209F5750409AF0F1F088234AF0EE0FFF1FD5
S1130630BB1F661F771F881F91505040A9F79E3F2C
S1130640510580F00C947B020C94C6025F3FE4F3E6
S1130650983ED4F3869577956795B795F795E79582
S11306609F5FC1F7FE2B880F911D9695879597F98B
S11306700895A1E21A2EAA1BBB1BFD010DC0AA1FDF
S1130680BB1FEE1FFF1FA217B307E407F50720F0F7
S1130690A21BB30BE40BF50B661F771F881F991F72
S11306A01A9469F760957095809590959B01AC01BB
S11306B0BD01CF010895A29FB001B39FC001A39FC4
S11306C0700D811D1124911DB29F700D811D112487
S10B06D0911D0895F894FFCF79
S10706D84CFA0000D4
S9030000FC
